:10000000ADC1C7C1C6C1C5C1C4C1C3C1C2C1C1C1DF
:10001000C0C1BFC1BEC1BDC1BCC1BBC1BAC1B9C1F4
:10002000B8C1B7C1B6C1F8C304C41AC49DC79CC740
:1000300044C414C599C798C797C796C795C794C7AE
:1000400093C792C762C4C1C4C3C4E3C3DFC3E3C4DC
:100050008EC623C735C721C733C732C731C74EC77E
:1000600026C49BC781C780C77FC77EC77DC77CC7A3
:100070007BC77AC779C778C777C776C775C774C78C
:100080000EC4FBC3FDC370C7FEC3FFC308C485C74E
:10009000FEC36AC706C468C767C709C4FAC3FCC3FE
:1000A00052656164792E204A75737420636C6F7396
:1000B0006520746865207465726D696E616C2E20B0
:1000C0004E6F207265736574206E65656465642E7D
:1000D0000D0A002028686578290D0A000D0A4F4B8B
:1000E0002C206D792053572076657273696F6E20CE
:1000F0006973206E6F773A20005D3A20000A0D4543
:100100006E7465722053572056657273696F6E2046
:100110004D696E6F7220696E20686578205B005DA6
:100120003A2000456E7465722053572056657273ED
:10013000696F6E204D616A6F7220696E2068657804
:10014000205B000A0D4176725573623530302D31D7
:100150002E37207465726D696E616C206D6F6465F9
:100160000D0A000A0D41757367616E677370726FD7
:100170006A656B742062792041746D656C2C204136
:1001800070706C2E204E6F74652041565230363898
:10019000000A0D4D6F646966697A696572746572EB
:1001A00020417672557362353030202F2053544BE6
:1001B0003530302050726F6772616D6D65722062EC
:1001C0007920522E205365656C69670A0D00202046
:1001D00020003A200020003A20000A0A0D0D416458
:1001E00064723A2048657864756D70202020202064
:1001F0002020202020202020202020202041736348
:1002000069690A0D2D2D2D2D2D2D2D2D2D2D2D2DE9
:100210002D2D2D2D2D2D2D2D2D2D2D2D2D2D2D2D0E
:100220002D2D2D2D2D2D2D2D2D2D2D000A0D0A0DB1
:100230004D43533531204953502D466C617368202E
:1002400050726F6772616D6D6572202F20342D4280
:100250007974652050726F746F6B6F6C6C0A0D75DA
:100260006E74657273747565747A746520436F6E0D
:1002700074726F6C6C65723A202041543839533572
:100280003120202D20415438395335320A0D28634E
:1002900029203230313520627920522E2053656575
:1002A0006C69670A0D0A0D5374657565726B6F6D25
:1002B0006D616E646F730A0D0A0D31202D20436C41
:1002C00065617220202F2032202D205374617274BA
:1002D0006164726573736520202F2033202D2050B8
:1002E000726F6772616D6D6C61656E67650A0D3462
:1002F000202D20526573657420202F2035202D205D
:100300004D656C64756E67202020202020202F20F2
:1003100036202D20466C617368656E0A0D37202DDE
:10032000204C6573656E20202F2038202D205072C0
:100330006F672E456E61626C652020202F2064203F
:100340002D204865782D44756D700A0D001B5B30BB
:100350006D1B5B324A1B5B303B30660011241FBEB5
:10036000CFE5D4E0DEBFCDBF10E0A0E6B0E0EEEF19
:10037000F5E102C005900D92AC36B107D9F721E046
:10038000ACE6B0E001C01D92A43AB207E1F7E9D8AB
:1003900034C936CE8FE59AEE0197F1F700C0000020
:1003A000089580E18A95F1F7089580E18A95F1F743
:1003B000089587B38C6287BBBC98C49A089598E06F
:1003C00020E8322F382311F0C39A01C0C39830E1DE
:1003D0003A95F1F7C59A30E13A95F1F7C59830E1D1
:1003E0003A95F1F72695915061F780E18A95F1F7FA
:1003F0000895CF93DF9300D0CDB7DEB74A836983EA
:10040000DEDF6981862FDBDF4A81842F0F900F901A
:10041000DF91CF91D4CFCF93DF931F92CDB7DEB7CB
:100420002983E7DF2981822F0F90DF91CF91C7CFFA
:1004300027E030E080E041E050E090E19A95F1F76C
:10044000C59AB49B07C0BA01022E01C0660F0A9478
:10045000EAF7862B90E19A95F1F7C598215031097A
:1004600060F70895C29A80E18A95F1F7C2980895DD
:10047000F9DF8FE59AEE0197F1F700C00000C29A0C
:100480008FE59AEE0197F1F700C0000040E063E5C8
:100490008CEAAFDFCDCFCF93DF93CDB7DEB7289710
:1004A0000FB6F894DEBF0FBECDBF8F9A979A81DF4B
:1004B000C398C298C598E1D61092A2011092A101EA
:1004C00010929F0110929E018CE292E02ED7C2986A
:1004D000CE0101967C014E0199E0890E911C8EE2BD
:1004E000582E04D7853309F459C070F4823309F4C7
:1004F00049C018F48133A1F0F4CF833309F448C024
:10050000843379F7B5DF1AC1873309F47AC008F468
:1005100049C0883309F414C1843609F493C0E1CF8B
:10052000A7DF8936F1F6EFE5FAEE3197F1F700C073
:1005300000008FE59AEE0197F1F700C0000020E07F
:1005400040E060E88CEA67DFEFE5FAEE3197F1F71B
:1005500000C000008FE59AEE0197F1F700C000009F
:1005600020E040E060E88CEA56DFEFE5FAEE3197F4
:10057000F1F700C000008FE59AEE0197F1F700C097
:100580000000AFCF1AD79093A2018093A101A9CF09
:1005900014D790939F0180939E01A3CF8CE292E0A9
:1005A000C4D69FCF979864DF893611F0979A99CF78
:1005B000EFE5FAEE3197F1F700C00000C090A1011D
:1005C000D090A201860180919E0190919F01019699
:1005D00098012C193D092817390740F7CFD6282F45
:1005E000402F612F80E417DF402F612F80E201DF71
:1005F000F0E1FA95F1F71CDF8FE449D60F5F1F4F4A
:10060000E2CF36DF893609F06CCFC090A101D090DF
:10061000A201860180919E0190919F01019698010F
:100620002C193D092817390708F088C0402F612F81
:1006300080E2DFDE80E18A95F1F7FADE83D60F5F94
:100640001F4FE8CF15DF893609F04BCF8AED91E0D7
:100650006CD66090A1017090A20152D6F701519220
:10066000E815F905E1F700E010E0D12C5801A60CDF
:10067000B71C80919E0190919F019C012F5F3F4F7D
:1006800002171307D8F50115110529F4C5016FD616
:1006900087ED91E04AD6C80187709927892BD1F45C
:1006A00001151105B9F085ED91E03FD66701F6011E
:1006B000808180320CF48EE2EAD5F60151926F010E
:1006C000E815F905A1F71CD6C50151D682ED91E0D8
:1006D0002CD6D12C402F460D6B2D80E28ADEF0E126
:1006E000FA95F1F7A5DEF701ED0DF11D8083D394A6
:1006F00029D680E2CCD50F5F1F4FB8CF8C01009573
:100700001095077011270115110531F08EEC91E05D
:100710000CD601501109F7CF80E2B9D58701802F9F
:100720008E198D1550F4F801808180320CF48EE220
:10073000AED5F80151928F01F2CFE2D5C298D1CE59
:100740008FE59AEE0197F1F700C0000091DEFAD52F
:10075000C8CEDF92EF92FF920F931F93CF93DF9358
:10076000182FEB019B01215031092D31314028F028
:1007700080EC80937700C2E0D0E08BE188D5812FB8
:1007800086D58D2F84D58C2F82D58EE080D595E1AE
:10079000D92ED126DC26DD26E2D606E710E0CE01F2
:1007A0008A589F4F7C010E151F0541F0E801F801A2
:1007B00081918F016CD58881D826F5CF8D2DDF9161
:1007C000CF911F910F91FF90EF90DF9060C52F9216
:1007D0003F924F925F926F927F928F929F92AF92D1
:1007E000BF92CF92DF92EF92FF920F931F93CF931E
:1007F000DF93482E8091760090E0FC013197ED3137
:10080000F10508F0B1C3ED5EFF4F0994DD24D394E8
:10081000AFC25524539400C11092770088E08093B2
:10082000780062E670E089E790E0A2D66BE070E0C5
:10083000A0C380917700883921F480917800CED5CB
:10084000E7C08E3929F48091780080936000E0C081
:100850008F3909F0DDC08091780080937500D8C091
:100860008091770090E0FC01E058F109E032F10559
:1008700008F07AC3E05DFF4F09948091A00113C096
:100880008091A30110C082E313C089E111C0C6D5D5
:100890000AC08091600007C08091750004C082E0AA
:1008A00007C08CE805C08F3F09F45EC301C080E03B
:1008B000109277008093780000C3309177002091E8
:1008C0007800822F90E0A0E0B0E0DC019927882733
:1008D000B32B40917A00842B40917900942B809324
:1008E0006E0090936F00A0937000B093710037FF7B
:1008F00004C081E08093740002C0109274002093C1
:10090000720081E08093730083C09698A8D580918F
:10091000780090E00FD680EC8093770080917A0089
:10092000813318F080E380937A0080917B008111FD
:1009300003C081E080937B00C0E0D0E080917A002A
:1009400090E0C817D90708F012C309D6969880918D
:10095000790090E0EFD580917E0098D580917B0062
:1009600090E0E8D580917F0091D580917B0090E068
:10097000E1D5969A8091800089D5182F80917B00CF
:1009800090E0D8D58091810081D590917D00209113
:100990007C00933019F4121309C006C0821302C000
:1009A00010927700911102C0109277008091770029
:1009B000811105C09698C0917A00D0E0BFCF2196F2
:1009C00030D584E190E0B6D5B9CFABD5969A20C0AA
:1009D000809179005BD580917A0058D580917B0019
:1009E00055D580917C0052D580917800882311F0F4
:1009F000C7E907C08091770090E09CD509C0C1503D
:100A000039F060E070E080E090EF73D580FDF7CFC3
:100A100010927700ACC2512C80917A00843018F487
:100A200084E080937A0080917A00813218F080E22D
:100A300080937A0080916E0090916F0090936D008A
:100A400080936C000091770010E0102F00278091B8
:100A50007800082B093121E0120710F080EC85C2E4
:100A60007ED530907900B0E8EB2EB0E0FB2EC0E0F0
:100A7000D0E0812C912C540130FCBAC0612CF6E9F5
:100A80007F2EA2E02A2EC017D10709F46DC1552090
:100A900031F0C0FF04C080917B00886002C080916B
:100AA0007B00F4D480916E0090916F001BD567019C
:100AB000F70181917F01EAD490917E00F601808157
:100AC000981769F080906E0090906F00A090700071
:100AD000B0907100AA24BB243092790002C0209209
:100AE00079003DD5511003C082E090E023D580917C
:100AF000790082FF1FC080917E00E6E97E2E6E01A4
:100B0000F1E0CF22DD2490917E00891326C077206A
:100B100079F080917D00552021F0C114D10409F0B5
:100B20008860B4D4C401DED480E0B0D47A94EBCF32
:100B3000712C13C083FF0DC076E9772E60E070E062
:100B400080E090EFD6D480FF08C0772089F37A94B4
:100B5000F5CF80917A0090E0EDD4552011F0C0FFE0
:100B600013C080916E0090916F00A0917000B091C1
:100B700071000196A11DB11D80936E0090936F00CE
:100B8000A0937000B0937100711002C060E8662EEF
:100B9000219679CFE4D48091740081112DC0552025
:100BA00009F448C0C0FF46C080917B0088606ED4C5
:100BB00080916E0090916F0095D46701F70181914B
:100BC0007F0164D490917E00F60180819817A9F18D
:100BD00080906E0090906F00A0907000B0907100B7
:100BE000AA24BB24552009F450C0C0FD2DC0219675
:100BF000C017D10779F65DC080916E0090916F00AB
:100C0000A0917000B0917100AA27BB27892B8A2B75
:100C10008B2B21F080917300882309F28DE436D468
:100C200080E034D48091720031D480E02FD41092CF
:100C30007300B5CF80917B00BACF80917900807826
:100C4000806180937900CECF80916E0090916F008B
:100C5000A0917000B09171000196A11DB11D80930B
:100C60006E0090936F00A0937000B0937100AA275C
:100C7000BB278F3F9F4FA105B10509F0B8CF8091E9
:100C800072008F5F80937200B2CF80916E0090915E
:100C90006F00A0917000B09171000196A11DB11D6F
:100CA00080936E0090936F00A0937000B0937100DA
:100CB0009ECF55D48091790087FF4FC080917C00F2
:100CC000E5D380916C0090916D000CD480E0DED370
:100CD000511003C081E090E02DD48091790085FF10
:100CE00027C081149104A104B10411F180917E0008
:100CF000C6E97501640191E0C922DD24EE24FF24D8
:100D000090917E00891311C0CC2349F180917D0020
:100D1000C114D104E104F10409F08860B7D3C4011F
:100D2000E1D380E0B3D3C150EBCFCC23C1F015C0E9
:100D300086FF0FC0C6E960E070E080E090EFD9D395
:100D400080FF04C0CC2371F0C150F5CFCC2351F00B
:100D500004C080917A0090E0EDD3612C05C050E88A
:100D6000652E02C041E8642E6092770000C1D12C4C
:100D70000091770010E0102F002780917800C0903C
:100D80007900082B0931E1E01E0710F008E111E0BD
:100D900028E7E22E20E0F22EC0E0D0E0FC2DF86043
:100DA000BF2EC017D10709F46FC0D9D3809174004A
:100DB0008823E9F080916E0090916F00A0917000FF
:100DC000B0917100AA27BB27892B8A2B8B2B21F08E
:100DD00080917300882359F08DE458D380E056D376
:100DE0008091720053D380E051D310927300DD20C4
:100DF00021F0C0FF02C08B2D01C08C2D47D3809104
:100E00006E0090916F006ED380E040D3F701819324
:100E10007F01DD2019F1C0FF35C040916E00509177
:100E20006F0060917000709171004F5F5F4F6F4F66
:100E30007F4F40936E0050936F00609370007093EB
:100E40007100662777274F3F5F4F61057105D1F429
:100E5000809172008F5F8093720014C040916E0089
:100E600050916F0060917000709171004F5F5F4F03
:100E70006F4F7F4F40936E0050936F0060937000F0
:100E80007093710021968DCFBE016D5F7F4F1092E0
:100E90007700CA58DF4F1A826CC080917700F6D273
:100EA00080917800F3D280917900F0D280917A001D
:100EB000EDD2109277001092780063E070E059C094
:100EC00008E710E0C1E0D0E0F80181918F01DED2A7
:100ED0002091770030E02C173D0711F480937800C3
:100EE00085E090E027D32196C530D10569F71092AF
:100EF00077001092790064E070E03BC010917800B8
:100F000000917900D0E0C0E080917700D817C0F45C
:100F100085E090E00FD38D2F90E0FC01EA58FF4F61
:100F20008481D01750F0C11740F4B0D2EC2FF0E01C
:100F3000EA58FF4F8283CF5F01C0A8D2DF5FE4CFC2
:100F40008C2F90E0C11730F4FC01EA58FF4F128259
:100F5000CF5FF6CFBC016D5F7F4F10927700FC0131
:100F6000EA58FF4F128205C089EC8093770062E057
:100F700070E0842DDF91CF911F910F91FF90EF9042
:100F8000DF90CF90BF90AF909F908F907F906F90A9
:100F90005F904F903F902F90DCCB81E089CCFF9207
:100FA0000F931F93CF93DF9300D0CDB7DEB781119E
:100FB00002C011E001C012E081E086D1282FFF2499
:100FC000FA9402E02D3099F12A3089F1002359F189
:100FD00090ED920F9A3028F0822F8F7D81548630C9
:100FE000F0F48FEFF81201C0F12C822F29839A833D
:100FF0004ED18F2D8295807F9A8129819A3018F465
:10100000F82EF90E0BC09FEB920F963018F439ECC6
:10101000F32E02C099EAF92EF20EF80E015081E08B
:1010200053D1282FCFCF112321F081E04DD1115082
:10103000FACF8F2D0F900F90DF91CF911F910F91CD
:10104000FF9008950895CF93C82F81E991E02ED1A4
:1010500083E691E02BD183E491E028D183E291E013
:1010600025D18091A00140E166E770E090E087D251
:1010700086E790E010D18FE191E018D18C2F8FDFBF
:101080008F3F11F08093A0018DEF90E00FD1809100
:10109000A30140E166E770E090E071D286E790E05E
:1010A000FAD089EF90E002D18C2F79DF8F3F11F0D9
:1010B0008093A3016091A30181E090E081D26091CF
:1010C000A00182E090E07CD264E180E090E078D200
:1010D0008CED90E0EBD08091A00140E166E770E0FC
:1010E00090E04DD286E790E0D6D08EE2D0D08091CD
:1010F000A301803110F480E3CAD08091A30140E1C4
:1011000066E770E090E03BD286E790E0C4D083EDE4
:1011100090E0CCD080EA90E0CF91C8C0CF93DF932D
:101120001F92CDB7DEB7A9D010D28E9A969A789436
:101130008AE08093A30182E08093A00180E090E0A8
:1011400037D2843151F481E090E032D28093A30110
:1011500082E090E02DD28093A001812C912C00E0C0
:1011600010E0D12CC12CF12C60EBB62E71ECA72E27
:1011700081E0AAD0982F8B3169F45BE1E52E91E0F4
:1011800080E09983A1D099819130D9F4E826D82EB6
:1011900092E0F6CF8D3049F08A3039F0812C912CD5
:1011A00000E010E0D12CF12CE3CF2FEF821A920A4D
:1011B000C1105BC09A3009F04AC08DE0F81247C0F8
:1011C00052C0923039F4E826082F10E0102F002783
:1011D00093E0D6CF933021F4E826082B94E0D0CFCB
:1011E000943039F4E8268E3019F6812C912C95E054
:1011F000C7CF9530B9F48016910684F6E8E18E16D3
:10120000E1E09E065CF6E826F401EA58FF4F808391
:10121000FFEF8F1A9F0AA8958016910609F0B0CFAC
:1012200096E0AECF963009F0B9CF8E1107C01016F8
:10123000110624F4A8958D2DCADAB0CFB0927600AD
:10124000A092770062E070E08D2D83DAA7CF22E0D4
:101250008216910481F480E09983F5DE9981F92E5C
:10126000812C912C85CFCC24C39484E088169104E2
:1012700011F481E0F1CFF92E7BCF599A10BC80E1B7
:1012800089B98AB188618AB986E880BD08955D9B75
:10129000FECF8CB90895CF93DF93EC018991882319
:1012A00011F0F5DFFBCFDF91CF910895CF93DF935E
:1012B000FC018491EF012196882319F0E8DFFE01FB
:1012C000F8CFDF91CF910895CF93DF931F92CDB7E1
:1012D000DEB75F9906C08823E1F3898340D1898115
:1012E000F8CF8CB10F90DF91CF9108955F9BFECF27
:1012F0005F988CB108955F9B02C08CB1FCCF0895BC
:101300008AE0C5DF8DE0C3CF0F931F93CF93DF93A8
:10131000EC018E018991BBDFF80180818111F9CF49
:10132000DF91CF911F910F910895CF93DF93EC013F
:10133000FE018491882319F0AADF2196F9CFDF916D
:10134000CF910895CF93C82F982F92959F709A3080
:1013500010F087E301C080E3890F99DF8C2F8F7035
:101360008A3010F0895C01C0805DCF9190CFCF931F
:10137000C82F892FE7DF8C2FCF91E4CFCF93B6DF33
:1013800090ED980F9A3030F099EC980F9A3010F059
:1013900099EA980FC92FC295C07FA8DF90ED980FEA
:1013A0009A3030F099EC980F9A3010F099EA980F33
:1013B000892F8F708C2BCF910895CF93DF93DEDF31
:1013C000D82FC0DFDBDFC82FBDDF2D2F30E0922FFD
:1013D00088278C0F911DDF91CF91089510929D0168
:1013E000843028F081E080939D018CE005C07098E6
:1013F000833029F4699A689A809361000895823055
:1014000019F4699A6898F8CF813011F46998F3CF8C
:10141000689869981092610080E008958091610059
:1014200008958DB11DB8C598EFE8F1E03197F1F757
:1014300000C00000C59AEFE8F1E03197F1F700C075
:101440000000C5988DB90895C29A8FE891E0019780
:10145000F1F700C00000C29884E190E06BC0BA9A36
:10146000C29ABB9AC398BD9AC59884E190E062D0B5
:1014700080919D01811105C081E58DB98091610048
:10148000ADDFC29884E190E055D0DECF90919D0110
:10149000911105C08FB9779BFECF8FB10895C59884
:1014A00028E030E040E090E8592F582311F0C39A2B
:1014B00001C0C398EFE8F1E03197F1F700C00000F8
:1014C000B499492BC59AEFE8F1E03197F1F700C0E4
:1014D0000000C5989695215031092115310521F755
:1014E000842F0895CF93C82F892FD0DF8C2FCF91D1
:1014F000CDCF1F93CF93DF9300D0CDB7DEB7182F9A
:10150000892F6A837983C2DF812FC0DF7981872F9A
:10151000BDDF6A81862F0F900F90DF91CF911F91D1
:10152000B5CF1DB8C29ABB98C398BD98C598BA9854
:10153000C2980895009741F0EFEFFEE03197F1F780
:1015400000C000000197F6CF08952FE088E190E0F9
:101550000FB6F894A89581BD0FBE21BD0895A8953A
:101560000895959A8D988E9A969A979A9798D6DD1F
:10157000FB01DC0101900D920020E1F70895BB27EB
:10158000FB015527AA27880F991FAA1FA41710F03F
:10159000A41B83955051B9F7A05DAA3308F0A95D4B
:1015A000A193009779F7B111B1931192CB0115C0B6
:1015B000E199FECF9FBB8EBBE09A99278DB308952A
:1015C000262FE199FECF9FBB8EBB2DBB0FB6F894A3
:1015D000E29AE19A0FBE01960895DC01FC01672FA3
:1015E00071917723E1F7329704C07C916D937083FA
:0E15F0006291AE17BF07C8F30895F894FFCFBD
:0C15FE0001014156524953505F32000079
:00000001FF
