:10000000B6C0D0C0CFC0CEC0CDC0CCC0CBC0CAC09F
:10001000C9C0C8C0C7C0C6C0C5C0C4C0C3C0C2C0B4
:10002000C1C0C0C0BFC0F1C100C216C239C238C20F
:1000300042C23DC335C234C233C232C231C230C201
:100040002FC22EC27DC2E8C2EAC2DCC1D8C109C338
:10005000C5C455C567C553C565C564C563C582C5F7
:10006000BBC5BCC51DC21CC21BC21AC219C218C264
:1000700017C216C215C214C213C212C211C210C2D4
:10008000AFC5F8C1FAC10CC2FBC1FCC1A9C5A6C568
:10009000FBC106C201C204C203C29EC5F7C1F9C1B9
:1000A0001B5B306D1B5B324A1B5B303B3066005282
:1000B000656164792E204A75737420636C6F736573
:1000C00020746865207465726D696E616C2E204EB7
:1000D0006F207265736574206E65656465642E0DAE
:1000E0000A002028686578290D0A000D0A4F4B2C5C
:1000F000206D792053572076657273696F6E206981
:1001000073206E6F773A20005D3A2000456E74656B
:10011000722053572056657273696F6E204D696E59
:100120006F7220696E20686578205B005D3A200060
:10013000456E7465722053572056657273696F6EF1
:10014000204D616A6F7220696E20686578205B00BF
:100150004176725573623530302D312E37207465FB
:10016000726D696E616C206D6F64650D0A001124FB
:100170001FBECFE5D4E0DEBFCDBF10E0A0E6B0E00B
:10018000E8E7F0E102C005900D92AC36B107D9F76F
:1001900011E0ACE6B0E001C01D92A03AB107E1F772
:1001A00027D569C72DCF8BE1D0D585E4CED508956D
:1001B000A1E0B0E0EDEDF0E00BC7882319F022E0FC
:1001C000F22E02C0FF24F39481E0DCD5182F92E0D8
:1001D000E92E0FEF2DC0812F805389838A3030F0B4
:1001E0008151863018F080528630F8F40F3F09F4C0
:1001F00000E0812FAAD5E981EA3028F41053029556
:10020000007F010F11C0812F8154202F33278630AA
:1002100018F4012F075302C0012F075584E0220F65
:10022000331F8A95E1F7020FEA9481E0ABD5182FCE
:100230001D3039F01A3029F0EE2069F603C081E054
:10024000A1D5FA94FF20D9F7802F9927E6E02196CF
:10025000DBC61F93182F80EA90E087D580E591E0F8
:1002600084D580E391E081D580919E0140E150E00A
:1002700066E770E099277CD686E790E06AD58CE245
:1002800091E073D5812F94DF8F3F11F080939E0111
:100290008ADF8CE091E069D580919F0140E150E0D8
:1002A00066E770E0992764D686E790E052D588E04B
:1002B00091E05BD5812F7CDF8F3F11F080939F0110
:1002C00072DF80919F01A1E0B0E0082EB4D680914A
:1002D0009E01A2E0B0E0082EAED684E1A0E0B0E03E
:1002E000082EA9D68BEE90E040D580919E0140E18A
:1002F00050E066E770E099273BD686E790E029D585
:100300008EE223D580919F01803110F480E31DD5CA
:1003100080919F0140E150E066E770E0992728D680
:1003200086E790E016D582EE90E01FD58FEA90E048
:100330001CD51F910895CF92DF92FF920F931F93C8
:10034000CF93DF93CDB7DEB721970FB6F894DEBF1A
:100350000FBECDBFF82E6B01CB0101978D5191409F
:1003600030F080EC8093770042E0C42ED12C8BE1FA
:10037000ECD48F2DEAD48D2D9927082FE6D48C2D1F
:10038000E4D48EE0E2D495E19F259C2590279983C3
:10039000E6D506E710E0C00ED11E998109C0F8012C
:1003A00080819983D2D4F80181918F019981982716
:1003B0000C151D05A1F7892FC8D421960FB6F89406
:1003C000DEBF0FBECDBFDF91CF911F910F91FF9088
:1003D000DF90CF900895A0E0B0E0E0EFF1E0EDC550
:1003E000382E809176009927AA27BB27FC013197E8
:1003F000ED31F10508F054C0ED5EFF4F0994DD24A6
:10040000D394EDC2552453942DC181E0809376009E
:100410001092770088E08093780060E670E089E7CA
:1004200090E09FD56BE070E0DDC380917700883964
:1004300021F480917800B6D480C08E3929F480915F
:1004400078008093690079C08F3909F076C0809177
:10045000780080936C0071C0809177009927AA275B
:10046000BB27FC01E058F040E032F105C8F4E05D44
:10047000FF4F099480919E0111C080919F010EC091
:1004800082E314C089E112C0C4D408C0809169001D
:1004900005C080916C0002C08CE808C08F3F31F429
:1004A00089EC8093770062E070E09CC31092770043
:1004B0008093780034C36091770070917800272F83
:1004C000332744275527A90133272227862F992729
:1004D000AA27BB27B82FAA2799278827282B392B8B
:1004E0004A2B5B2B809179009927AA27BB27BA2F2B
:1004F000A92F982F8827282B392B4A2B5B2B8091EB
:100500007A009927AA27BB27282B392B4A2B5B2B4C
:1005100020936D0030936E0040936F0050937000F5
:1005200067FF04C081E08093710002C010927100E7
:100530007093720081E08093730010927700B3CFC4
:10054000A8988CD4809178009927F0D480EC80937F
:10055000770080917A00813318F080E380937A00ED
:1005600080917B00882319F481E080937B00C0E0B8
:10057000D0E04AC0F4D4A898809179009927D6D4C5
:1005800080917E0083D480917B009927CFD4809185
:100590007F007CD480917B009927C8D4A89A809151
:1005A000800074D4182F80917B009927BFD480914C
:1005B00081006CD4982F80917D00833031F480913C
:1005C0007C00181711F41092770080917D00833021
:1005D00031F080917C00981711F41092770080918F
:1005E0007D00882311F41092770080917700882392
:1005F00031F4A89880917A00C82FDD2705C0219694
:1006000015D484E190E092D480917A009927C8179C
:10061000D90708F4AFCF47CF00D4A89A8ECF8091E6
:10062000790034D480917A0031D480917B002ED42B
:1006300080917C002BD480917800882311F016E9FA
:1006400006C080917700992771D477CF115060E070
:1006500070E080E090EF42D480FF6FCF1123B1F7BC
:100660006CCF552480917A00843018F484E0809314
:100670007A0080917A00813218F080E280937A00CB
:1006800080916D0090916E0090937500809374003E
:10069000809177009927B82EAA2480917800992715
:1006A000A82AB92A29E1A21621E0B20610F080ECAE
:1006B000F8CE55D44090790040FE0AC020E8C22E02
:1006C00020E0D22EEE24FF248701C0E0D0E026C136
:1006D00090E8892E90E0992E86E9782E6624EE2403
:1006E000FF248701CC24DD248FC0552031F0C0FECB
:1006F00004C080917B00886002C080917B00C6D3DB
:1007000080916D0090916E0005D4D4018C91BED380
:1007100090917E00F4018081981799F0E0906D002F
:10072000F0906E0000916F00109170008FEF9FEFBE
:10073000A0E0B0E0E822F9220A231B2340927900CE
:1007400003C082E0809379000AD4552019F482E036
:1007500090E0ECD380917900992782FF20C090919E
:100760007E0006E9702EE601C170D07011C05520E0
:1007700031F0209721F080917D00886002C0809147
:100780007D0084D3C701C6D380E080D3982F7A94AC
:1007900080917E009817B9F4772049F714C083FF41
:1007A0000EC016E9712E01C07A9460E070E080E01E
:1007B00090EF94D380FF07C07720B1F704C08091F9
:1007C0007A009927B3D3552011F0C0FE13C0809151
:1007D0006D0090916E00A0916F00B0917000019635
:1007E000A11DB11D80936D0090936E00A0936F00CA
:1007F000B0937000772011F4B0E86B2E0894C11C00
:10080000D11C0894811C911CCA14DB0409F06DCF23
:10081000E2C0A5D3809171008823A9F080916D007A
:1008200090916E00892B21F080917300882359F0FC
:100830008DE42CD380E02AD38091720027D380E00E
:1008400025D310927300552031F0C0FF04C0809171
:100850007B00886002C080917B0018D380916D007E
:1008600090916E0057D3D6018C9110D390917E0059
:10087000F6018081981789F0E0906D00F0906E008D
:1008800000916F00109170008FEF9FEFA0E0B0E03B
:10089000E822F9220A231B2306C080917900807880
:1008A000806180937900552011F1C0FF33C08091A1
:1008B0006D0090916E00A0916F00B0917000019654
:1008C000A11DB11D80936D0090936E00A0936F00E9
:1008D000B0937000A070B0708F5F9F4FA040B04089
:1008E000C9F4809172008F5F8093720013C0809171
:1008F0006D0090916E00A0916F00B0917000019614
:10090000A11DB11D80936D0090936E00A0936F00A8
:10091000B093700021960894C11CD11CCA15DB0548
:1009200009F077CF1CD38091790087FF4DC080916B
:100930007C00ACD28091740090917500EBD280E085
:10094000A5D2552019F481E090E0F0D28091790091
:10095000992785FF23C0E114F10401051105F1F089
:1009600090917E00A6E9DA2EE701C170D0700CC02C
:1009700080917D00209709F0886088D2C701CAD293
:1009800080E084D2982FDA9480917E00981719F431
:10099000DD2071F71BC0DD20C9F016C086FF10C036
:1009A00016E901C0115060E070E080E090EF96D24F
:1009B00080FF03C01123B1F70CC0112351F004C014
:1009C00080917A009927B2D2662405C0F0E86F2E94
:1009D00002C0E1E86E2E6092770065CDDD24809143
:1009E00077009927D82FCC27809178009927C0903D
:1009F0007900C82BD92BF1E0C931DF0710F0C8E12D
:100A0000D1E068E7E62E60E0F62E00E010E058E066
:100A1000B52EBC2867C0A3D2809171008823A9F0AD
:100A200080916D0090916E00892B21F08091730070
:100A3000882359F08DE42AD280E028D28091720078
:100A400025D280E023D210927300DD2021F000FF38
:100A500002C08B2D01C08C2D19D280916D00909118
:100A60006E0058D280E012D2D7018C93DD2011F1B4
:100A700000FF33C080916D0090916E00A0916F00D7
:100A8000B09170000196A11DB11D80936D009093EF
:100A90006E00A0936F00B0937000A070B0708F5F75
:100AA0009F4FA040B040C9F4809172008F5F809347
:100AB000720013C080916D0090916E00A0916F0044
:100AC000B09170000196A11DB11D80936D009093AF
:100AD0006E00A0936F00B09370000F5F1F4F0894DB
:100AE000E11CF11C0C171D0709F095CFBE016D5FCD
:100AF0007F4F10927700CA58DF4F1A8273C08091DF
:100B00007700C4D180917800C1D180917900BED1A5
:100B100080917A00BBD1109277001092780063E048
:100B200070E060C008E710E0C1E0D0E0D8018C912F
:100B3000ADD1282F8091770099278C179D0711F44C
:100B40002093780085E090E0F1D10F5F1F4F219650
:100B5000C530D10559F7109277001092790064E002
:100B600070E040C0F0907800E090790000E0C0E0D4
:100B7000D0E01BC085E090E0D9D11E1578F00F15AC
:100B800068F4E12FFF27EA58FF4F84817FD1E02FDF
:100B9000FF27EA58FF4F82830F5F06C0E12FFF2730
:100BA000EA58FF4F848172D121961C2F80917700E3
:100BB000C81700F304C0EA58FF4F12820F5FE02FFE
:100BC000FF270F15C0F3BF016D5F7F4F10927700B5
:100BD000EA58FF4F128206C080E068CC81E066CC04
:100BE00082E064CC832DA7DBE1E1CDB7DEB701C2A3
:100BF000CFE5D4E0DEBFCDBFA0D0A7D1A09AA89A00
:100C0000789484E080939F0182E080939E01A0E02D
:100C1000B0E009D2802D843179F4A1E0B0E003D2B4
:100C2000802D80939F01A2E0B0E0FDD1802D8093C4
:100C30009E0102C0E12E07C0AA24EE24BB24CC24CE
:100C4000DD24C0E0D0E081E09DD0182F8B3149F445
:100C500001E01BE1F12E80E095D0182F0130F1F476
:100C600019C08D3011F08A3041F72196AA2049F43D
:100C70001A3009F05DC08DE0E81609F059C0AA24C9
:100C8000A394C430D105B1F681E001C080E0E1DA7F
:100C9000E12ED7CFF826B82E02E0DDCF023031F4B6
:100CA000F8269927D82ECC2403E0D5CF033031F491
:100CB000F8269927C82AD92A04E0CDCF043041F478
:100CC000F8268E3009F0BFCF05E0C0E0D0E0C3CFFA
:100CD0000530B9F4CC15DD050CF0AFCF81E0C8319B
:100CE000D8070CF0AACFF126FE01EA58FF4F108377
:100CF0002196A895CC15DD0509F0ADCF6E0106E073
:100D0000AACF063009F099CF8F1539F41C141D04B1
:100D100024F4A8958B2D5FDB90CF80EB8093760039
:100D200081EC8093770062E070E08B2D04DB85CF4F
:100D3000C230D10509F4AACF7DCF10BC81E089B9BA
:100D400088E18AB986E880BD08955D9BFECF8CB9A5
:100D50000895CF93DF93EC0102C0F7DF21968881DD
:100D60008823D9F7DF91CF910895CF93DF93EC01DA
:100D700001C0EBDFFE01219684918823D1F7DF913A
:100D8000CF9108951F93182F02C01111E8D05F9BD7
:100D9000FCCF8CB199271F91089501C08CB15F9948
:100DA000FDCF089510929D01843048F081E080933A
:100DB0009D018CE080936A008CE090E00895833080
:100DC00041F47098699A689A80936A0083E090E091
:100DD0000895823048F07098699A689882E080930C
:100DE0006A0082E090E00895813031F4709869984B
:100DF000689A80936A0002C0882319F081E090E02D
:100E0000089570986898699810926A0080E090E060
:100E1000089580916A00992708951DB8C29ABB98D9
:100E2000C398BD98C598BA98C29808958DB11DB859
:100E3000C598ECE5F0E0DF011197F1F7C59A31971D
:100E4000F1F7C5988DB90895C29A8CE590E00197A5
:100E5000F1F7C29884E190E069D00895BA9AC29AF5
:100E6000BB9AC398BD9AC59884E190E05FD0809109
:100E70009D01882329F481E58DB980916A0092DF74
:100E8000C29884E190E052D0DFDF0895682F80910E
:100E90009D01882331F46FB9779BFECF8FB19927DD
:100EA0000895C59840E850E028E030E0862F84237C
:100EB00011F0C39A01C0C398ECE5F0E0CF010197AF
:100EC000F1F7B499542BC59A3197F1F7C598469527
:100ED0002150304059F7852F99270895EF92FF92BE
:100EE0000F931F937B018C01892F9927AA27BB277A
:100EF000CDDFC801AA27BB27C9DFBB27A12F902FB1
:100F00008F2DC4DF8E2DC2DF99271F910F91FF9087
:100F1000EF9008950F931F938C01892F9927B6DFC7
:100F2000802FB4DF99271F910F910895AC0120E025
:100F300030E0E4E7F3E005C0CF010197F1F72F5F60
:100F40003F4F24173507C1F7089588E190E02FE05F
:100F50000FB6F894A89581BD0FBE21BD0895A89540
:100F60000895FB01DC0101900D920020E1F7089546
:100F7000FB019F0142306CF045325CF4642F77270F
:100F800066D0805D8A330CF0895D8193CB01009738
:100F9000A9F71082C90100C0DC01FC01672F719123
:100FA0007723E1F7329704C07C916D93708362914F
:100FB000AE17BF07C8F308952F923F924F925F92EA
:100FC0006F927F928F929F92AF92BF92CF92DF9259
:100FD000EF92FF920F931F93CF93DF93CDB7DEB7BE
:100FE000CA1BDB0B0FB6F894DEBF0FBECDBF099452
:100FF0002A88398848885F846E847D848C849B84A9
:10100000AA84B984C884DF80EE80FD800C811B81B6
:10101000AA81B981CE0FD11D0FB6F894DEBF0FBEE5
:10102000CDBFED010895E199FECFBFBBAEBBE09A05
:1010300011960DB20895E199FECFBFBBAEBB0DBABC
:1010400011960FB6F894E29AE19A0FBE0895AA1B82
:10105000BB1B51E107C0AA1FBB1FA617B70710F0A3
:10106000A61BB70B881F991F5A95A9F780959095D5
:08107000BC01CD010895FFCF82
:0C1078004156524953505F320001010004
:00000001FF
