:10000000D2C0E1C0E0C0DFC0DEC0DDC0DCC0DBC00C
:10001000DAC0D9C0D8C0D7C0D6C0D5C0D4C0D3C02C
:10002000D2C0D1C0D0C0202020003A200020003A09
:1000300020000A0A0D0D416464723A204865786414
:10004000756D7020202020202020202020202020BE
:10005000202020202041736369690A0D2D2D2D2D4C
:100060002D2D2D2D2D2D2D2D2D2D2D2D2D2D2D2DC0
:100070002D2D2D2D2D2D2D2D2D2D2D2D2D2D2D2DB0
:100080002D2D2D000A0D0A0D4D43533531204953B6
:10009000502D466C6173682050726F6772616D6D90
:1000A0006572202F20342D427974652050726F7450
:1000B0006F6B6F6C6C0A0D756E7465727374756519
:1000C000747A746520436F6E74726F6C6C65723AEB
:1000D00020204154383953353120202D20415438C7
:1000E000395335320A0D28632920323031352062E8
:1000F0007920522E205365656C69670A0D0A0D53ED
:1001000074657565726B6F6D6D616E646F730A0DEA
:100110000A0D31202D20436C65617220202F203282
:10012000202D20537461727461647265737365204D
:10013000202F2033202D2050726F6772616D6D6CFF
:1001400061656E67650A0D34202D205265736574F4
:1001500020202F2035202D204D656C64756E672082
:100160002020202020202F2036202D20466C617357
:1001700068656E0A0D37202D204C6573656E202052
:100180002F2038202D2050726F672E456E61626CD3
:10019000652020202F2064202D204865782D44756F
:1001A0006D700A0D000011241FBECFE5D4E0DEBF44
:1001B000CDBF20E0A0E6B0E001C01D92A536B20799
:1001C000E1F727D1ACC21CCF9B01AC01213081EEFD
:1001D00038074105510568F056954795379527959D
:1001E00060E472E48FE090E078D221503109599AAE
:1001F00007C060E472E48FE090E06FD221503109D3
:1002000030BD29B98AB188618AB986E880BD089570
:100210005D9BFECF8CB908955F9BFECF5F988CB13C
:100220001CB808958AE0F4DF8DE0F2CF0F931F939E
:10023000CF93DF93EC018E018991EADFF801808191
:100240008111F9CFDF91CF911F910F910895CF9335
:10025000DF93EC01FE018491882319F0D9DF219608
:10026000F9CFDF91CF910895CF93C82F982F929512
:100270009F709A3010F087E301C080E3890FC8DFD8
:100280008C2F8F708A3010F0895C01C0805DCF9117
:10029000BFCFCF93C82F892FE7DF8C2FCF91E4CF2B
:1002A000CF93BADF90ED980F9A3030F099EC980F19
:1002B0009A3010F099EA980FC92FC295C07FACDF31
:1002C00090ED980F9A3030F099EC980F9A3010F02A
:1002D00099EA980F892F8F708C2BCF910895CF9327
:1002E000DF93DEDFD82FC0DFDBDFC82FBDDF2D2F90
:1002F00030E0922F88278C0F911DDF91CF910895C8
:100300008FE59AEE0197F1F700C00000089580E1B3
:100310008A95F1F7089580E18A95F1F7089587B3FA
:100320008E6087BBB898C09A089598E020E8322F75
:10033000382311F0C39A01C0C39830E13A95F1F720
:10034000C19A30E13A95F1F7C19830E13A95F1F769
:100350002695915061F780E18A95F1F70895CF9342
:10036000DF9300D0CDB7DEB74A836983DEDF6981D2
:10037000862FDBDF4A81842F0F900F90DF91CF9182
:10038000D4CFCF93DF931F92CDB7DEB72983E7DFBA
:100390002981822F0F90DF91CF91C7CF27E030E0E6
:1003A00080E041E050E090E19A95F1F7C19AB09B6E
:1003B00007C0BA01022E01C0660F0A94EAF7862B25
:1003C00090E19A95F1F7C1982150310960F70895AD
:1003D000C29A80E18A95F1F7C2988FE59AEE01976B
:1003E000F1F700C00000C29A0895F2DF8FE59AEE9F
:1003F0000197F1F700C0000040E063E58CEAAFDF51
:10040000CDDF882321F081E080936200C19A80E0F3
:100410000895CF93DF93CDB7DEB728970FB6F89442
:10042000DEBF0FBECDBF8E9A969A79DFC398C29871
:10043000C19860E072EC81E090E0C6DE109264004A
:10044000109263001092610010926000109262009E
:1004500084E890E0FCDEC298CE0101967C014E015A
:1004600099E0890E911C2EE2522ED6DE853309F4D6
:1004700059C070F4823309F449C018F48133A1F0F3
:10048000F4CF833309F448C0843379F7AEDF1AC15F
:10049000873309F47AC008F449C0883309F414C1D9
:1004A000843609F493C0E1CFA0DF8936F1F6EFE599
:1004B000FAEE3197F1F700C000008FE59AEE019750
:1004C000F1F700C0000020E040E060E88CEA59DF6E
:1004D000EFE5FAEE3197F1F700C000008FE59AEEF4
:1004E0000197F1F700C0000020E040E060E88CEAEE
:1004F00048DFEFE5FAEE3197F1F700C000008FE535
:100500009AEE0197F1F700C00000AFCFE8DE9093BC
:10051000640080936300A9CFE2DE90936100809332
:100520006000A3CF84E890E092DE9FCF96985DDFD5
:10053000893611F0969A99CFEFE5FAEE3197F1F7F7
:1005400000C00000C0906300D090640086018091DC
:10055000600090916100019698012C193D092817BF
:10056000390740F79DDE282F402F612F80E409DFF7
:10057000402F612F80E2F3DEF0E1FA95F1F70EDF14
:100580008FE446DE0F5F1F4FE2CF2FDF893609F081
:100590006CCFC0906300D0906400860180916000B1
:1005A00090916100019698012C193D09281739078F
:1005B00008F088C0402F612F80E2D1DE80E18A956B
:1005C000F1F7ECDE51DE0F5F1F4FE8CF0EDF89360B
:1005D00009F04BCF82E390E03ADE609063007090C8
:1005E000640020DEF7015192E815F905E1F700E01B
:1005F00010E0D12C5801A60CB71C8091600090919E
:1006000061009C012F5F3F4F02171307D8F50115BA
:10061000110529F4C5013DDE8FE290E018DEC80126
:1006200087709927892BD1F401151105B9F08DE256
:1006300090E00DDE6701F601808180320CF48EE2DD
:10064000E7DDF60151926F01E815F905A1F7EADD42
:10065000C5011FDE8AE290E0FADDD12C402F460D65
:100660006B2D80E27CDEF0E1FA95F1F797DEF70181
:10067000ED0DF11D8083D394F7DD80E2C9DD0F5FBE
:100680001F4FB8CF8C0100951095077011270115E9
:10069000110531F086E290E0DADD01501109F7CF63
:1006A00080E2B6DD8701802F8E198D1550F4F80198
:1006B000808180320CF48EE2ABDDF80151928F0123
:1006C000F2CFB0DDC298D1CE8FE59AEE0197F1F767
:1006D00000C000008ADEC8DDC8CEA1E21A2EAA1B27
:1006E000BB1BFD010DC0AA1FBB1FEE1FFF1FA217E2
:1006F000B307E407F50720F0A21BB30BE40BF50BDF
:10070000661F771F881F991F1A9469F76095709567
:10071000809590959B01AC01BD01CF010895F8949F
:02072000FFCF09
:00000001FF
