:100000000C94CF010C94EC010C94EC010C94EC01D9
:100010000C94EC010C94EC010C94EC010C94EC01AC
:100020000C94EC010C94EC010C94EC010C94EC019C
:100030000C94EC010C94EC010C94EC010C94EC018C
:100040000C94EC010C94EC010C94EC010C94EC017C
:100050000C94EC010C94EC010C94EC010C94EC016C
:100060000C94EC010C94EC016B04790491045A0893
:100070005A08C004A5055A085A085A085A085A08C6
:100080005A085A085A08E8045505590568046504D1
:1000900082054C07EA070108EA0701080108010880
:1000A0002108BA0474085A085A085A085A085A0803
:1000B0005A085A085A085A085A085A085A085A0830
:1000C0005A08B2049F04A2045A08A504A704B20463
:1000D0007408A9045A08B4045A085A08BA04AC04AB
:1000E000AF0452656164792E204A75737420636C85
:1000F0006F736520746865207465726D696E616CDC
:100100002E204E6F207265736574206E6565646580
:10011000642E0D0A002028686578290D0A000D0A52
:100120004F4B2C206D792053572076657273696F81
:100130006E206973206E6F773A20005D3A20000AC6
:100140000D456E7465722053572056657273696F42
:100150006E204D696E6F7220696E20686578205B35
:10016000005D3A2000456E74657220535720566535
:100170007273696F6E204D616A6F7220696E2068BC
:100180006578205B000A0D41767255736235303018
:100190002D312E37207465726D696E616C206D6F24
:1001A00064650D0A000A0D41757367616E677370AF
:1001B000726F6A656B742062792041746D656C2C76
:1001C000204170706C2E204E6F7465204156523065
:1001D0003638000A0D4D6F646966697A6965727414
:1001E000657220417672557362353030202F20536E
:1001F000544B3530302050726F6772616D6D65728F
:1002000020627920522E205365656C69670A0D00C3
:10021000202020003A200020003A20000A0A0D0D7C
:10022000416464723A2048657864756D70202020BE
:10023000202020202020202020202020202020419D
:10024000736369690A0D2D2D2D2D2D2D2D2D2D2D2D
:100250002D2D2D2D2D2D2D2D2D2D2D2D2D2D2D2DCE
:100260002D2D2D2D2D2D2D2D2D2D2D2D2D000A0D2E
:100270000A0D4D43533531204953502D466C61735F
:10028000682050726F6772616D6D6572202F203427
:100290002D427974652050726F746F6B6F6C6C0AAD
:1002A0000D756E74657273747565747A7465204328
:1002B0006F6E74726F6C6C65723A202041543839DD
:1002C00053353120202D20415438395335320A0D11
:1002D000286329203230313520627920522E205374
:1002E00065656C69670A0D0A0D5374657565726BF7
:1002F0006F6D6D616E646F730A0D0A0D31202D20D4
:10030000436C65617220202F2032202D20537461B0
:1003100072746164726573736520202F2033202D01
:100320002050726F6772616D6D6C61656E67650AF2
:100330000D34202D20526573657420202F20352028
:100340002D204D656C64756E6720202020202020B4
:100350002F2036202D20466C617368656E0A0D379C
:10036000202D204C6573656E20202F2038202D20F5
:1003700050726F672E456E61626C652020202F20C1
:1003800064202D204865782D44756D700A0D001B82
:100390005B306D1B5B324A1B5B303B3066001124C7
:1003A0001FBECFEFD8E0DEBFCDBF11E0A0E0B1E0CF
:1003B000ECE3F8E102C005900D92AC30B107D9F73B
:1003C00022E0ACE0B1E001C01D92A434B207E1F735
:1003D0000E94CD0B0C941C0C0C9400008FE59AEE3F
:1003E0000197F1F700C00000089580E18A95F1F7C8
:1003F000089580E18A95F1F7089584B18C6284B9FB
:1004000024982C9A089598E020E8322F382311F090
:100410002B9A01C02B9830E13A95F1F72D9A30E1F3
:100420003A95F1F72D9830E13A95F1F726959150EC
:1004300061F780E18A95F1F70895CF93DF9300D0BB
:10044000CDB7DEB74A8369830E9403026981862F94
:100450000E9403024A81842F0F900F90DF91CF9169
:100460000C940302CF93DF931F92CDB7DEB729839D
:100470000E941D022981822F0F90DF91CF910C9451
:10048000030227E030E080E041E050E090E19A95FF
:10049000F1F72D9A1C9B07C0BA01022E01C0660F0E
:1004A0000A94EAF7862B90E19A95F1F72D9821505E
:1004B000310960F708952A9A80E18A95F1F72A9820
:1004C00008950E945B028FE59AEE0197F1F700C054
:1004D00000002A9A8FE59AEE0197F1F700C000001C
:1004E00040E063E58CEA0E941D020C944102CF9328
:1004F000DF93CDB7DEB728970FB6F894DEBF0FBEF7
:10050000CDBF559A5D9A0E94FD012B982A982D988F
:100510000E94F40A109242021092410210923F028D
:1005200010923E028EE692E00E94690B2A98CE015C
:1005300001967C014E0199E0890E911C8EE2582EA5
:100540000E943D0B853309F45FC078F4823309F4CF
:100550004DC018F48133A9F0F3CF833309F44DC0B3
:10056000843371F70E9461023DC1873309F486C06C
:1005700008F44FC0883309F437C1843609F4A3C0A6
:10058000DFCF0E9461028936D9F6EFE5FAEE3197A6
:10059000F1F700C000008FE59AEE0197F1F700C077
:1005A000000020E040E060E88CEA0E943202EFE5C3
:1005B000FAEE3197F1F700C000008FE59AEE01974F
:1005C000F1F700C0000020E040E060E88CEA0E9403
:1005D0003202EFE5FAEE3197F1F700C000008FE547
:1005E0009AEE0197F1F700C00000AACF0E94B80B65
:1005F0009093420280934102A3CF0E94B80B909344
:100600003F0280933E029CCF8EE692E00E94690BEF
:1006100097CF5D980E946102893611F05D9A90CF64
:10062000EFE5FAEE3197F1F700C00000C09041020B
:10063000D0904202860180913E0290913F02019645
:1006400098012C193D092817390740F70E94970B8C
:10065000282F402F612F80E40E943202402F612F0B
:1006600080E20E941D02F0E1FA95F1F70E9441023A
:100670008FE40E94050B0F5F1F4FDDCF0E946102C8
:10068000893609F05DCFC0904102D09042028601C8
:1006900080913E0290913F02019698012C193D09EC
:1006A0002817390708F09EC0402F612F80E20E9472
:1006B0001D0280E18A95F1F70E9441020E94770BAA
:1006C0000F5F1F4FE5CF0E946102893609F038CFD6
:1006D0008CE192E00E94690B6090410270904202AE
:1006E0000E94510BF7015192E815F905E1F700E07E
:1006F00010E0D12C5801A60CB71C80913E029091BD
:100700003F029C012F5F3F4F0217130708F046C0BE
:100710000115110539F4C5010E948E0B89E192E0A3
:100720000E94690BC80187709927892BF9F401157C
:100730001105E1F087E192E00E94690B6701F60183
:10074000808180320CF48EE20E94050BF6015192FA
:100750006F01E815F90599F70E94510BC5010E9438
:100760008E0B84E192E00E94690BD12C402F460D44
:100770006B2D80E20E941D02F0E1FA95F1F70E94D4
:100780004102F701ED0DF11D8083D3940E94770B98
:1007900080E20E94050B0F5F1F4FACCF8C010095CC
:1007A0001095077011270115110539F080E192E0CD
:1007B0000E94690B01501109F6CF80E20E94050BDF
:1007C0008701802F8E198D1558F4F80180818032B1
:1007D0000CF48EE20E94050BF80151928F01F1CFCB
:1007E0000E94510B2A98ACCE8FE59AEE0197F1F753
:1007F00000C000000E9461020E94770BA1CEDF9230
:10080000EF92FF920F931F93CF93DF93182FEB017B
:100810009B01215031092D31314028F080EC80932B
:100820001701C2E0D0E08BE10E94050B812F0E94EE
:10083000050B8D2F0E94050B8C2F0E94050B8EE05F
:100840000E94050B95E1D92ED126DC26DD260E94DB
:10085000F20A06E111E0CE018A5E9E4F7C010E1580
:100860001F0549F0E801F80181918F010E94050BF5
:100870008881D826F4CF8D2DDF91CF911F910F91D4
:10088000FF90EF90DF900C94050B2F923F924F92C8
:100890005F926F927F928F929F92AF92BF92CF9210
:1008A000DF92EF92FF920F931F93CF93DF93482E27
:1008B0008091160190E0FC013197ED31F10508F0CF
:1008C000F9C3EC5CFF4F0C94CF0BDD24D394E5C24D
:1008D0005524539418C11092170188E08093180191
:1008E00062E071E089E191E00E94D50B6BE070E07D
:1008F000E6C380911701883929F4809118010E947C
:100900000C0AFDC08E3929F48091180180930001F2
:10091000F6C08F3909F0F3C080911801809315015A
:10092000EEC08091170190E0FC01E058F109E0323F
:10093000F10508F0BFC3EF5AFF4F0C94CF0B809125
:10094000400214C08091430211C082E314C089E1C7
:1009500012C00E94430A0AC08091000107C0809122
:10096000150104C082E007C08CE805C08F3F09F480
:10097000A1C301C080E010921701809318013EC30B
:100980003091170120911801822F90E0A0E0B0E093
:10099000DC0199278827B32B40911A01842B4091C1
:1009A0001901942B80930E0190930F01A0931001D5
:1009B000B093110137FF04C081E08093140102C09D
:1009C000109214012093120181E08093130197C0CB
:1009D0005D980E94650A8091180190E00E94DB0AF0
:1009E00080EC8093170180911A01813318F080E325
:1009F00080931A0180911B01811103C081E08093D3
:100A00001B01C0E0D0E080911A0190E0C817D9071F
:100A100008F053C30E94F20A5D988091190190E09A
:100A20000E94DB0A80911E010E94800A80911B01B6
:100A300090E00E94DB0A80911F010E94800A809151
:100A40001B0190E00E94DB0A5D9A809120010E94C8
:100A5000800A182F80911B0190E00E94DB0A809190
:100A600021010E94800A90911D0120911C01933068
:100A700019F4121309C006C0821302C010921701A4
:100A8000911102C01092170180911701811105C0C8
:100A90005D98C0911A01D0E0B6CF21960E94460A17
:100AA00084E190E00E94DB0AAECF0E94D20A5D9AF8
:100AB00026C0809119010E94800A80911A010E942B
:100AC000800A80911B010E94800A80911C010E9473
:100AD000800A80911801882311F0C7E908C080912D
:100AE000170190E00E94DB0A0AC0C15041F060E0AB
:100AF00070E080E090EF0E94B60A80FDF6CF109281
:100B00001701DBC2512C80911A01843018F484E063
:100B100080931A0180911A01813218F080E280934B
:100B20001A0180910E0190910F0190930D01809315
:100B30000C010091170110E0102F0027809118017F
:100B4000082B093121E0120710F080ECB4C20E949A
:100B5000F20A30901901B0E2EB2EB1E0FB2EC0E0BA
:100B6000D0E0812C912C540130FCC8C0612CF6E9F6
:100B70007F2EA2E02A2EC017D10709F48AC1552082
:100B800031F0C0FF04C080911B01886002C08091D9
:100B90001B010E94800A80910E0190910F010E941A
:100BA000AD0A6701F70181917F010E94800A90914F
:100BB0001E01F6018081981769F080900E019090D7
:100BC0000F01A0901001B0901101AA24BB24309213
:100BD000190102C0209219010E94F20A511004C0AA
:100BE00082E090E00E94DB0A8091190182FF22C01E
:100BF00080911E01E6E97E2E6E01F1E0CF22DD2418
:100C000090911E0189132BC0772091F080911D01D6
:100C1000552021F0C114D10409F088600E94800A97
:100C2000C4010E94AD0A80E00E94800A7A94E8CF55
:100C3000712C15C083FF0EC076E9772E60E070E05E
:100C400080E090EF0E94B60A80FF09C0772081F310
:100C50007A94F4CF80911A0190E00E94DB0A55202B
:100C600011F0C0FF13C080910E0190910F01A0916F
:100C70001001B09111010196A11DB11D80930E01CB
:100C800090930F01A0931001B0931101711002C055
:100C900060E8662E21966FCF0E94F20A80911401BF
:100CA000811130C0552009F450C0C0FF4EC0809162
:100CB0001B0188600E94800A80910E0190910F01B3
:100CC0000E94AD0A6701F70181917F010E94800AAD
:100CD00090911E01F60180819817D1F180900E014C
:100CE00090900F01A0901001B0901101AA24BB2494
:100CF000552009F455C0C0FD32C02196C017D10758
:100D000059F662C080910E0190910F01A0911001DF
:100D1000B0911101AA27BB27892B8A2B8B2B29F095
:100D200080911301882309F4BDCF8DE40E94800ACD
:100D300080E00E94800A809112010E94800A80E077
:100D40000E94800A10921301ADCF80911B01B2CF97
:100D5000809119018078806180931901C9CF8091B9
:100D60000E0190910F01A0911001B0911101019617
:100D7000A11DB11D80930E0190930F01A09310014E
:100D8000B0931101AA27BB278F3F9F4FA105B10543
:100D900009F0B3CF809112018F5F80931201ADCF24
:100DA00080910E0190910F01A0911001B09111015D
:100DB0000196A11DB11D80930E0190930F01A09388
:100DC0001001B093110199CF0E94F20A809119018C
:100DD00087FF58C080911C010E94800A80910C01FD
:100DE00090910D010E94AD0A80E00E94800A51108E
:100DF00004C081E090E00E94DB0A8091190185FF28
:100E00002AC081149104A104B10429F180911E012A
:100E1000C6E97501640191E0C922DD24EE24FF24B6
:100E200090911E01891314C0CC2371F180911D0192
:100E3000C114D104E104F10409F088600E94800A21
:100E4000C4010E94AD0A80E00E94800AC150E8CF30
:100E5000CC23D1F017C086FF10C0C6E960E070E077
:100E600080E090EF0E94B60A80FF04C0CC2379F0A6
:100E7000C150F4CFCC2359F005C080911A0190E005
:100E80000E94DB0A612C05C050E8652E02C041E8D3
:100E9000642E6092170111C1D12C0091170110E04E
:100EA000102F002780911801C0901901082B0931DB
:100EB000E1E01E0710F008E111E028E1E22E21E058
:100EC000F22EC0E0D0E0FC2DF860BF2EC017D10795
:100ED00009F477C00E94F20A80911401882309F175
:100EE00080910E0190910F01A0911001B09111011C
:100EF000AA27BB27892B8A2B8B2B21F080911301EA
:100F0000882379F08DE40E94800A80E00E94800AA4
:100F1000809112010E94800A80E00E94800A109253
:100F20001301DD2021F0C0FF02C08B2D01C08C2DEC
:100F30000E94800A80910E0190910F010E94AD0ADB
:100F400080E00E94800AF70181937F01DD2019F182
:100F5000C0FF35C040910E0150910F01609110010A
:100F6000709111014F5F5F4F6F4F7F4F40930E01A4
:100F700050930F016093100170931101662777273A
:100F80004F3F5F4F61057105D1F4809112018F5F72
:100F90008093120114C040910E0150910F01609195
:100FA0001001709111014F5F5F4F6F4F7F4F409362
:100FB0000E0150930F01609310017093110121965F
:100FC00085CFBE016D5F7F4F10921701CA5EDE4F65
:100FD0001A8275C0809117010E94800A80911801C1
:100FE0000E94800A809119010E94800A80911A0152
:100FF0000E94800A109217011092180163E070E0BD
:101000005EC008E111E0C1E0D0E0F80181918F01FC
:101010000E94800A2091170130E02C173D0711F43F
:101020008093180185E090E00E94DB0A2196C5308C
:10103000D10559F7109217011092190164E070E080
:101040003EC01091180100911901D0E0C0E08091DC
:101050001701D817D8F485E090E00E94DB0A8D2FA5
:1010600090E0FC01EA5EFE4F8481D01758F0C11772
:1010700048F40E94800AEC2FF0E0EA5EFE4F828383
:10108000CF5F02C00E94800ADF5FE1CF8C2F90E02B
:10109000C11730F4FC01EA5EFE4F1282CF5FF6CF3B
:1010A000BC016D5F7F4F10921701FC01EA5EFE4F9D
:1010B000128205C089EC8093170162E070E0842DF4
:1010C000DF91CF911F910F91FF90EF90DF90CF9024
:1010D000BF90AF909F908F907F906F905F904F9058
:1010E0003F902F900C94FF0381E045CCFF920F932B
:1010F0001F93CF93DF9300D0CDB7DEB7811102C02D
:1011000011E001C012E081E00E94270B282FFF248C
:10111000FA9402E02D30B1F12A30A1F1002369F1F7
:1011200090ED920F9A3028F0822F8F7D8154863077
:10113000F8F48FEFF81201C0F12C822F29839A83E3
:101140000E94050B8F2D8295807F9A8129819A308C
:1011500018F4F82EF90E0BC09FEB920F963018F48E
:1011600039ECF32E02C099EAF92EF20EF80E015076
:1011700081E00E94270B282FCDCF112329F081E099
:101180000E94270B1150F9CF8F2D0F900F90DF91F8
:10119000CF911F910F91FF9008950895CF93C82F7D
:1011A00083ED91E00E94180B85EA91E00E94180BF4
:1011B00085E891E00E94180B85E691E00E94180BEB
:1011C0008091400240E166E171E090E00E94DC0B1A
:1011D00086E191E00E940C0B81E691E00E94180BE1
:1011E0008C2F0E9476088F3F11F0809340028FE38E
:1011F00091E00E94180B8091430240E166E171E0AA
:1012000090E00E94DC0B86E191E00E940C0B8BE3E6
:1012100091E00E94180B8C2F0E9476088F3F11F0EE
:10122000809343026091430281E090E00E94FE0BB4
:101230006091400282E090E00E94FE0B64E180E059
:1012400090E00E94FE0B8EE191E00E94180B8091CD
:10125000400240E166E171E090E00E94DC0B86E133
:1012600091E00E940C0B8EE20E94050B80914302DC
:10127000803118F480E30E94050B8091430240E125
:1012800066E171E090E00E94DC0B86E191E00E9453
:101290000C0B85E191E00E94180B82EE90E0CF915B
:1012A0000C94180BCF93DF931F92CDB7DEB70E943B
:1012B000F40A0E94E60A559A5D9A789484E0809335
:1012C000430282E08093400280E090E00E94F60BAF
:1012D000843161F481E090E00E94F60B8093430238
:1012E00082E090E00E94F60B80934002812C912CCA
:1012F00000E010E0D12CC12CF12C60EBB62E71EC8B
:10130000A72E81E00E94270B982F8B3171F45BE1AF
:10131000E52E91E080E099830E94270B998191301E
:10132000D9F4E826D82E92E0F5CF8D3049F08A30F6
:1013300039F0812C912C00E010E0D12CF12CE1CF80
:101340002FEF821A920AC1105FC09A3009F04DC087
:101350008DE0F8124AC056C0923039F4E826082FC2
:1013600010E0102F002793E0D5CF933021F4E8262A
:10137000082B94E0CFCF943041F4E8268E3009F06A
:10138000C0CF812C912C95E0C5CF9530B9F4801653
:1013900091067CF6E8E18E16E1E09E0654F6E8261A
:1013A000F401EA5EFE4F8083FFEF8F1A9F0AA89533
:1013B0008016910609F0AECF96E0ACCF963009F0DA
:1013C000B8CF8E1108C0101611062CF4A8958D2DDB
:1013D0000E944504AECFB0921601A092170162E0C0
:1013E00070E08D2D0E94FF03A4CF22E082169104AD
:1013F00089F480E099830E94CE089981F92E812C8E
:10140000912C7FCFCC24C39484E08816910411F4EE
:1014100081E0F0CFF92E75CF10923D02843028F094
:1014200081E080933D028CE00BC0833061F49DB578
:101430009E7F9DBD9CB592609CBD9CB591609CBDFE
:10144000809301010895823049F49DB59E7F9DBD32
:101450009CB592609CBD9CB59E7FF1CF813031F4EC
:101460009DB59E7F9DBD9CB59D7FE6CF8DB58E7F42
:101470008DBD8CB58E7F8CBD8CB58D7F8CBD109253
:10148000010180E008958091010108958CB51CBC94
:101490002D98EFE8F1E03197F1F700C000002D9AA8
:1014A000EFE8F1E03197F1F700C000002D988CBD16
:1014B00008952A9A8FE891E00197F1F700C00000A3
:1014C0002A9884E190E00C94DB0A229A2A9A239AC3
:1014D0002B98259A2D9884E190E00E94DB0A809158
:1014E0003D02811106C081E58CBD809101010E9401
:1014F0000C0A2A9884E190E00E94DB0A0C94590AB5
:1015000090913D02911106C08EBD0DB407FEFDCF36
:101510008EB508952D9828E030E040E090E8592FEE
:10152000582311F02B9A01C02B98EFE8F1E0319786
:10153000F1F700C000001C99492B2D9AEFE8F1E06B
:101540003197F1F700C000002D9896952150310990
:101550002115310521F7842F0895CF93C82F892FA6
:101560000E94800A8C2FCF910C94800A1F93CF93F6
:10157000DF9300D0CDB7DEB7182F892F6A83798328
:101580000E94800A812F0E94800A7981872F0E9401
:10159000800A6A81862F0F900F90DF91CF911F9163
:1015A0000C94800A1CBC2A9A23982B9825982D9875
:1015B00022982A980895009741F0EFEFFEE03197C6
:1015C000F1F700C000000197F6CF08952FE088E101
:1015D00090E00FB6F894A895809360000FBE20931A
:1015E00060000895A8950895E0ECF0E080818260A5
:1015F00080831092C50080E18093C40088E18093CD
:10160000C10086E08093C20008959091C00095FFCC
:10161000FCCF8093C6000895CF93DF93EC018991AE
:10162000882319F00E94050BFACFDF91CF9108951E
:10163000CF93DF93FC018491EF012196882321F061
:101640000E94050BFE01F7CFDF91CF910895CF9354
:10165000DF931F92CDB7DEB79091C00097FD07C012
:101660008823D1F389830E94F20A8981F5CF809182
:10167000C6000F90DF91CF9108958091C00087FF41
:10168000FCCF8091C0008F778093C0008091C6000E
:1016900008958091C00087FF03C08091C600F9CFF4
:1016A00008958AE00E94050B8DE00C94050B0F93C2
:1016B0001F93CF93DF93EC018E0189910E94050B5C
:1016C000F80180818111F8CFDF91CF911F910F91A7
:1016D0000895CF93DF93EC01FE018491882321F0DC
:1016E0000E94050B2196F8CFDF91CF910895CF93FB
:1016F000C82F982F92959F709A3010F087E301C001
:1017000080E3890F0E94050B8C2F8F708A3010F0B8
:10171000895C01C0805DCF910C94050BCF93C82FDD
:10172000892F0E94770B8C2FCF910C94770BCF933E
:101730000E943D0B90ED980F9A3030F099EC980F85
:101740009A3010F099EA980FC92FC295C07F0E9475
:101750003D0B90ED980F9A3030F099EC980F9A303D
:1017600010F099EA980F892F8F708C2BCF910895E4
:10177000CF93DF930E94970BD82F0E94770B0E9484
:10178000970BC82F0E94770B2D2F30E0922F8827C0
:101790008C0F911DDF91CF9108950E945209EE0F99
:1017A000FF1F0590F491E02D0994FB01DC010190ED
:1017B0000D920020E1F70895BB27FB015527AA27CA
:1017C000880F991FAA1FA41710F0A41B83955051CE
:1017D000B9F7A05DAA3308F0A95DA193009779F746
:1017E000B111B1931192CB010C940C0CF999FECF6D
:1017F00092BD81BDF89A992780B50895262FF99951
:10180000FECF1FBA92BD81BD20BD0FB6F894FA9AE3
:10181000F99A0FBE01960895DC01FC01672F7191C2
:101820007723E1F7329704C07C916D9370836291C6
:0C183000AE17BF07C8F30895F894FFCF6F
:0C183C0001014156524953505F32000038
:00000001FF
